:100000000C94F8000C9417010C942E010C9415011B
:100010000C9415010C9415010C9415010C94150108
:100020000C9415010C9415010C9415010C941501F8
:100030000C9415010C9442030C9415010C941501B9
:100040000C9415010C9415010C9415010C941501D8
:100050000C9415010C9415010C9415010C941501C8
:100060000C9415010C941501312E436F6E64656E6E
:100070007361646F7220202000322E496E647563B4
:1000800074616E63696120202000332E52657369AC
:100090007374656E63696120202000342E54726190
:1000A0006E736973746F7220202020004C4C45479A
:1000B0004952202020202020202020200043414C95
:1000C0002020202020202020202020202000454EFD
:1000D000524552452020202020202020202000684A
:1000E0000079008A009B00AC00BD00CE006E616EFE
:1000F00000696E660000407A10F35A00A0724E1834
:10010000090010A5D4E80000E87648170000E40BC9
:1001100054020000CA9A3B000000E1F5050000808F
:10012000969800000040420F000000A086010000E9
:1001300000102700000000E8030000000064000039
:100140000000000A00000000000100000000002C78
:1001500076D888DC674F0823DFC1DFAE59E1B1B73D
:1001600096E5E3E453C63AE651997696E8E6C2840A
:1001700026EB898C9B62ED407C6FFCEFBC9C9F4022
:10018000F2BAA56FA5F490055A2AF75C936B6CF947
:10019000676DC11BFCE0E40D47FEF520E6B500D01D
:1001A000ED902E0300943577050080841E08000032
:1001B000204E0A000000C80C333333330F986E1200
:1001C000831141EF8D2114893BE65516CFFEE6DB06
:1001D00018D1844B381BF77C1D901DA4BBE4242050
:1001E0003284725E228100C9F124ECA1E53D270032
:1001F00011241FBECFEFD8E0DEBFCDBF11E0A0E0DD
:10020000B1E0EAEEF2E202C005900D92A83AB10721
:10021000D9F711E0A8EAB1E001C01D92A73DB107EE
:10022000E1F70E9450010C9473110C9400001F928E
:100230000F920FB60F9211248F939F9381E08093BA
:10024000C3011092BC0180E49CE90197F1F79F91F2
:100250008F910F900FBE0F901F9018951F920F92C5
:100260000FB60F9211248F939F9381E08093C30167
:100270008093BC0180E49CE90197F1F79F918F91F5
:100280000F900FBE0F901F901895529853985A9A3E
:100290005B9A109269008DB383608DBB789408954A
:1002A0000E9407030E943D090E94C7060E94450163
:1002B00080E060E00E94D4018091C3018130C1F7E9
:1002C0001092C3018091BC0190E00E947906F0CFAA
:1002D000877021E030E002C0220F331F8A95E2F7D9
:1002E00020958091A80182238093A80188EA91E05B
:1002F00068E00E94C8020895877021E030E002C0E3
:10030000220F331F8A95E2F78091A801822B8093F8
:10031000A80188EA91E068E00E94C80208950F935E
:100320001F93082F662321F481E00E94680103C017
:1003300081E00E947C01902F907F8091A8018F70B6
:10034000982B9093A80188EA91E068E00E94C80287
:1003500083E00E947C0115E3812F8A95F1F783E009
:100360000E946801812F8A95F1F70295007F8091A4
:10037000A8018F70802B8093A80188EA91E068E043
:100380000E94C80283E00E947C01812F8A95F1F7C8
:1003900083E00E9468011A95F1F780E29EE40197DC
:1003A000F1F71F910F910895843178F4623031F0A4
:1003B000633031F0613029F4806403C08C5E01C089
:1003C0008C5A806860E00E948F010895EF92FF923E
:1003D0000F931F93DF93CF9300D000D00F92CDB730
:1003E000DEB79C018B01FE01319685E0DF011D9295
:1003F0008A95E9F7FE0135960DC0C9016AE070E003
:100400000E941C0F8083C9016AE070E00E941C0FEB
:100410009B0131972115310581F7BFEF0F3F1B0776
:1004200079F420E030E0AE014F5F5F4F02C02F5FF4
:100430003F4FFA01E20FF31F80818823C1F304C00C
:1004400025E030E0201B310B7E010894E11CF11CFB
:10045000E20EF31E890109C0F70181917F01805DE1
:1004600061E00E948F010F5F1F4F05301105A4F35B
:100470000F900F900F900F900F90CF91DF911F91E1
:100480000F91FF90EF900895CF93DF93EC0110C090
:10049000853251F4219688818053883028F085E296
:1004A00061E00E948F01888161E00E948F012196A6
:1004B0008881882369F7DF91CF9108950F931F9367
:1004C000CF93DF93082F0E94B3021092A80183E01C
:1004D0000E94680182E00E94680181E00E94680138
:1004E0008CE291E020E931E0F9013197F1F70197D1
:1004F000D9F78091A80180628093A80188EA91E0F1
:1005000068E00E94C80283E00E947C0115E3812F0D
:100510008A95F1F783E00E9468011A95F1F780E26D
:100520009EE40197F1F7802F8C6060E00E948F01BC
:1005300088E260E00E948F0180E460E00E948F0109
:10054000C0E0D1E0899161E00E948F0181E0C03478
:10055000D807C1F780E060E00E94D401DF91CF911D
:100560001F910F910895569A209A579A5E9858981D
:100570005F980895882311F05F9A01C05F98289AC8
:100580008AE6982F9A95F1F728988A95F1F70895B9
:10059000CF92DF92EF92FF920F931F93CF93DF934F
:1005A0007C01062F11E0C62FD0E081E0C82ED12CAF
:1005B0001BC09E01211B3109C90168E070E00E9447
:1005C0001C0FFB01EE0DFF1DC90168E070E00E94E9
:1005D0001C0F960102C0220F331F8A95E2F780811B
:1005E00082230E94BA021F5F011718F75E9A8AE6FB
:1005F000982F9A95F1F75E988A95F1F7DF91CF9150
:100600001F910F91FF90EF90DF90CF90089580E0C1
:100610000E945E0281E060E00E948F0180E491E030
:100620000E94440288EE93E020E931E0F90131971D
:10063000F1F70197D9F70E945303089587708064FA
:1006400080937C0085E080937A0080917A008068B6
:1006500080937A0080917A00806480937A00809100
:100660007A0084FFFCCF80917A00806180937A00C9
:100670009091780080917900382F20E0290F311D6A
:10068000C90108951F920F920FB60F9211248F93F4
:100690008091C4018F5F8093C4018F910F900FBE32
:1006A0000F901F90189555981092800086E08093C7
:1006B0008100109282000895AF92BF92CF92DF9294
:1006C000EF92FF920F931F931092C4011092850036
:1006D000109284008FEF86BB80916F0081608093C1
:1006E0006F00789488EE93E020E931E0F9013197CA
:1006F000F1F70197D9F780916F008E7F80936F009B
:100700006091C401E0908400F090850070E080E08A
:1007100090E0CB01772766270E94DA0D5B016C0120
:1007200000E010E0C801B7010E94D80D9B01AC01A8
:10073000C601B5010E94DC0C20E030E048EC52E438
:100740000E94440D1F910F91FF90EF90DF90CF908A
:10075000BF90AF90089541984298439840982C9844
:100760002A982D982B98299839983A983B98389838
:10077000249822982598239821980895CF93DF9361
:10078000EC010E94AB038D81882309F049C0888168
:10079000813019F4259A2D9A09C0823019F4239AD0
:1007A0002B9A04C0833011F4219A299A89818130CF
:1007B00019F4389A409A09C0823019F4249A2C9A74
:1007C00004C0833011F4229A2A9A9A81913019F444
:1007D000399A419809C0923019F43A9A429804C063
:1007E000933011F43B9A43980E941E039C01220F00
:1007F000331F220F331F280F391F40E050E0CA017A
:10080000B9010E94D80D20E030E040E85AEB0E9488
:100810008E0E20E030E040EA50E40E94DC0C45C03F
:10082000813009F052C08881813019F4259A2D98C1
:1008300009C0823019F4239A2B9804C0833011F434
:10084000219A29988981813019F4389A409809C0F1
:10085000823019F4249A2C9804C0833011F4229A1F
:100860002A989A81913019F4399A419A09C09230A4
:1008700019F43A9A429A04C0933011F43B9A439A7D
:100880000E941E039C01220F331F220F331F280FCB
:10089000391F40E050E0CA01B9010E94D80D20E0A4
:1008A00030E040E85AE30E948E0E20E030E04AE754
:1008B00054E40E948E0E2AE939E949E850E40E9486
:1008C000440D0E94AC0D7C836B830E94AB0381E0DE
:1008D000DF91CF9108950F931F93082F162F0E9439
:1008E000AB03013019F4389A409A07C0023019F46A
:1008F000249A2C9A02C0229A2A9A113019F4399A11
:10090000419809C0123019F43A9A429804C0133041
:1009100011F43B9A439888EE93E020E931E0F90125
:100920003197F1F70197D9F7802F0E941E03182FF6
:10093000092F0E94AB03812F902F1F910F910895D3
:100940008F929F92AF92BF92CF92DF92EF92FF92DF
:100950000F931F93DF93CF93CDB7DEB72C970FB6CE
:10096000F894DEBF0FBECDBF81E062E00E946B0451
:100970004C0181E063E00E946B046C0182E061E065
:100980000E946B045C0182E063E00E946B047C01C6
:1009900083E061E00E946B048C0183E062E00E94CE
:1009A0006B0428EE821623E09206F0F4A8EECA1635
:1009B000A3E0DA0650F48C149D0418F042E033E012
:1009C00002C043E032E020E047C0B3E0883E9B072E
:1009D00008F056C08816990618F041E033E002C0CE
:1009E00043E031E021E029C028EEC21623E0D20620
:1009F00088F488EEE81683E0F80608F041C0CE14CB
:100A0000DF0418F041E032E002C042E031E021E0D2
:100A100093E03AC0A8EEAA16A3E0BA06F8F4B8EE3E
:100A2000EB16B3E0FB0658F4AE14BF0418F041E037
:100A300033E002C043E031E020E092E025C023E053
:100A4000083E1207E8F4A016B10618F042E033E0C1
:100A500002C043E032E021E091E016C0A3E0083E8E
:100A60001A0770F4B3E0883E9B0750F40817190783
:100A700018F041E032E002C042E031E020E0C8CFAF
:100A800040E030E020E090E0FE01319686E0DF01BA
:100A90001D928A95E9F799832E833A834B83DE0171
:100AA000179686E001900D928150E1F72F813885ED
:100AB00049855A856B857C8590E02C960FB6F89415
:100AC000DEBF0FBECDBFCF91DF911F910F91FF9081
:100AD000EF90DF90CF90BF90AF909F908F90089550
:100AE000CF92DF92EF92FF920F931F93CF93DF93FA
:100AF000EC01C62E81E0E82EF12C012D112DDD2414
:100B0000D3940BC0C801B7012AE030E040E050E0C8
:100B10000E94F10E7B018C01D394DC1498F3BE018A
:100B200080E090E020E332E040E050E00E94F10EEF
:100B300020E034E02C1B3D0B40E050E00E942F0FE2
:100B4000C801B7010E94F10EDF91CF911F910F9163
:100B5000FF90EF90DF90CF9008953D9845983E9894
:100B6000469850985898519859983C9844980895A8
:100B7000CF93DF93EC010E94AD053D9A459A88EE34
:100B800093E020E931E0F9013197F1F70197D9F7C6
:100B900084E00E941E033D98459822E08D3B920719
:100BA00048F461E00E947005688379838A839B839F
:100BB00081E058C03E9A469A88EE93E020E931E001
:100BC000F9013197F1F70197D9F784E00E941E03EC
:100BD0003E98469822E08D3B920748F462E00E94DE
:100BE0007005688379838A839B8382E03BC0509A37
:100BF000589A88EE93E020E931E0F9013197F1F756
:100C00000197D9F784E00E941E035098589822E07B
:100C10008D3B920748F463E00E94700568837983F6
:100C20008A839B8383E01EC0519A599A88EE93E091
:100C300020E931E0F9013197F1F70197D9F784E024
:100C40000E941E035198599822E08C3B920710F0A5
:100C50008AE008C064E00E947005688379838A8313
:100C60009B8384E0DF91CF91089508950F931F93A4
:100C700006EC11E091E1F80111929A95E9F7E82F5D
:100C8000F0E0EE0FFF1FE951FF4F65917491C8012D
:100C90000E94741080E061E00E94D401C8010E94AB
:100CA00044021F910F910895FF920F931F93F82E06
:100CB00006EC11E081E1F80111928A95E9F781E0F3
:100CC00060E00E948F01EF2DF0E0EE0FFF1FE15278
:100CD000FF4F65917491C8010E94741080E060E03C
:100CE0000E94D401C8010E9444021F910F91FF90FD
:100CF0000895982F8823B9F48091A701813049F491
:100D00008091A9018F5F83708093A9010E9454068E
:100D100008958091AA018F5F63E00E94100F892FD0
:100D20009093AA010BC0813089F58091A701813091
:100D300041F482E08093A7018091AA010E943606C7
:100D400008958091AA01813069F0813018F08230D5
:100D5000E9F414C0E091A901F0E0EE0FFF1FE9569D
:100D6000FE4F07C0E091A901F0E0EE0FFF1FE15632
:100D7000FE4F0190F081E02D099508959093A70111
:100D80001092AA018091A9010E945406089580E062
:100D90000E94540608950E942C0908950E942C096F
:100DA00008950F931F93DF93CF9300D000D0CDB75A
:100DB000DEB7CE0101960E94B8058DB79EB70897A1
:100DC0000FB6F8949EBF0FBE8DBFEDB7FEB731963C
:100DD00006EC11E0ADB7BEB712961C930E931197B7
:100DE0008FE491E09383828389819A81AB81BC8176
:100DF00084839583A683B7830E94BD10EDB7FEB7A9
:100E000038960FB6F894FEBF0FBEEDBF80E060E0ED
:100E10000E94D401C8010E944402D8010D90002014
:100E2000E9F78D0101501040065C114005C080E2D9
:100E300061E00E948F010F5F0031C8F380E061E044
:100E40000E94D40186EC91E00E9444020F900F9022
:100E50000F900F90CF91DF911F910F910895CF9236
:100E6000DF92EF92FF920F93CF93DF930E94B2082D
:100E70006B017C0120E030E040E85FE30E94400D20
:100E8000882364F4C701B60120E030E04AE754E467
:100E90000E948E0E6B017C010EE617C0C701B601E1
:100EA00020E030E04AE754E40E948A0E181614F05D
:100EB00005E70BC0C701B60120E030E04AE754E483
:100EC0000E94440D6B017C010DE681E060E00E9410
:100ED0008F018DB79EB70A970FB6F8949EBF0FBECD
:100EE0008DBFEDB7FEB73196C6ECD1E0ADB7BEB75A
:100EF0001296DC93CE93119785E591E093838283DC
:100F0000C482D582E682F782008711860E94BD10D6
:100F10008DB79EB70A960FB6F8949EBF0FBE8DBFD1
:100F200080E060E00E94D401CE010E944402DF9183
:100F3000CF910F91FF90EF90DF90CF900895CF92D7
:100F4000DF92EF92FF920F93CF93DF930E94EF080F
:100F50006B017C0120E030E040E85FE30E94400D3F
:100F600087FD02C005E71FC0C701B60120E030E0E1
:100F70004AE754E40E948E0E6B017C0120E030E0D1
:100F800040E85FE30E94400D87FD02C00EE60BC003
:100F9000C701B60120E030E04AE754E40E948E0E1B
:100FA0006B017C0100E781E060E00E948F018DB75A
:100FB0009EB70A970FB6F8949EBF0FBE8DBFEDB7D0
:100FC000FEB73196C6ECD1E0ADB7BEB71296DC9352
:100FD000CE93119781E691E093838283C482D58278
:100FE000E682F782008711860E94BD108DB79EB7FA
:100FF0000A960FB6F8949EBF0FBE8DBF80E060E0EA
:101000000E94D401CE010E944402DF91CF910F9142
:10101000FF90EF90DF90CF9008950F931F93DF9391
:10102000CF93CDB7DEB72F970FB6F894DEBF0FBEC4
:10103000CDBF0E94A0042A873B874C875D876E87BF
:101040007F87DE011496FE013A9686E001900D92AC
:101050008150E1F7CE0104960E94BE038C81FE010F
:10106000E80FF11D82E480838D81FE01E80FF11D00
:1010700083E480838E81FE01E80FF11D85E4808387
:1010800081E1E6ECF1E0DF011D928A95E9F7498103
:101090005A816B818985882319F02DE631E002C0E1
:1010A00021E731E08DB79EB70C970FB6F8949EBF3D
:1010B0000FBE8DBFEDB7FEB7319606EC11E0ADB7B0
:1010C000BEB712961C930E93119785E791E0938318
:1010D0008283448315825683178260871186338703
:1010E00022870E94BD108DB79EB70C960FB6F8945C
:1010F0009EBF0FBE8DBF80E060E00E94D401C8019A
:101100000E94440200D000D000D0EDB7FEB7319667
:10111000ADB7BEB712961C930E93119787E891E076
:10112000938382838F819885958384830E94BD10E9
:101130008DB79EB706960FB6F8949EBF0FBE8DBFB3
:1011400080E061E00E94D401C8010E9444022F9611
:101150000FB6F894DEBF0FBECDBFCF91DF911F91C8
:101160000F91089580E090E00E943F116093AF01DD
:101170007093B0018093B1019093B2010E945C031F
:101180009B01AC016093AB017093AC018093AD0106
:101190009093AE016091AF017091B0018091B10167
:1011A0009091B2010E94440D9B01AC010E948E0EF1
:1011B00020E030E040E85FE30E94DB0C20E030E01C
:1011C00048EC52E40E948E0E9B01AC012093B301C7
:1011D0003093B4014093B5015093B601089580E077
:1011E00090E00E943F116093AF017093B001809333
:1011F000B1019093B2010E945C039B01AC0160932A
:10120000AB017093AC018093AD019093AE016091FE
:10121000AF017091B0018091B1019091B2010E9433
:10122000440D9B01AC010E948E0E20E030E040E8AE
:101230005FE30E94DB0C2FE632E143E85AE30E94B1
:101240008E0E9B01AC012093B3013093B401409307
:10125000B5015093B60108950E945C03AB01BC0137
:101260004093AF015093B0016093B1017093B2010C
:1012700080E090E00E944511089580E090E00E9497
:101280003F116093AF017093B0018093B1019093CF
:10129000B20120E030E040E050E00E94400D8823A1
:1012A00011F40E942C090895A1E1B0E0EAE5F9E00B
:1012B0000C94510F3C017F876E876A01FC011782F5
:1012C0001682838181FD03C06FEF7FEF6FC39E01A4
:1012D0002F5F3F4F398B288BF3012381EE85FF85EC
:1012E00023FD859123FF8191FF87EE87882309F4F1
:1012F0005AC3853251F4EE85FF8523FD859123FF86
:101300008191FF87EE87853229F490E0B3010E9436
:101310009110E2CF982F10E0882499241032B0F475
:101320009B3269F09C3228F4903251F0933271F480
:101330000BC09D3239F0903349F4116028C012601F
:10134000146025C0186023C0106121C017FD2AC099
:10135000892F80538A3078F416FF06C0FAE09F9EEA
:10136000902C1124980E13C03AE0839E802C1124F7
:10137000880E10620CC09E3221F416FD14C3106456
:1013800006C09C3611F4106802C0983659F4EE85F8
:10139000FF8523FD959123FF9191FF87EE87992388
:1013A00009F0BCCF892F8554833020F4812F8061D0
:1013B000905E07C0892F8556833008F09FC1812F2A
:1013C0008F7E86FD02C076E0972E6FE3F62EF82220
:1013D000953619F4F0E4FF2A07C0963619F420E890
:1013E000F22A02C091109A94F7FE0AC03BE3391525
:1013F00018F45CE3B52E02C0B92CB39427E009C001
:1014000047E0491520F4BB2447E0942EF7CF292D5F
:10141000BB24C60104969D878C87F601608171818B
:1014200082819381AE014F5F5F4F0B2D0E949C0F15
:101430006C010981202E332400FF04C003FD02C08B
:101440001DE209C0F1FE02C01BE205C0F2FC02C0B1
:1014500010E001C010E2C1018C709070892BB9F1CD
:10146000112311F483E001C084E0881510F0882472
:101470000AC0881AF3FC07C080E290E0B3010E9422
:1014800091108A94C9F7112329F0812F90E0B301BC
:101490000E94911023FE03C00DEE10E00EC001EF7C
:1014A00010E00BC0E114F10409F0805290E0B301A8
:1014B0000E9491100F5F1F4F05C0EF2CFF24F0E139
:1014C000EF22FF24F8018491882361F714C1F7FE0D
:1014D00012C0BC0C24FE04C08A81813309F4BA9482
:1014E0001B141CF0BB24B3942DC0F8E0FB1550F581
:1014F00038E0B32E27C0F6FC25C0892D90E08C156E
:101500009D054CF02CEFC2162FEFD20624F030E8E8
:10151000F32A01C09A94992049F0E2E0F0E0EC0F40
:10152000FD1FE90DF11D80818033A1F3F7FE0AC094
:10153000B92CB394892D90E0C816D90614F09924DB
:1015400001C09C18F7FC03C025E030E009C01C1462
:101550001D041CF021E030E003C096012F5F3F4FD7
:10156000112311F02F5F3F4F992029F0892D90E032
:101570000196280F391F882D90E02817390714F09D
:10158000882401C0821A4F2C5524C20189709070A2
:10159000892B39F008C080E290E0B3010E949110DD
:1015A0008A948820C1F7112329F0812F90E0B3019C
:1015B0000E94911043FE07C008C080E390E0B30191
:1015C0000E9491108A948820C1F7F7FE46C08601D8
:1015D000D7FE02C000E010E076010894E11CF11C87
:1015E000E01AF10A41E050E04C0F5D1FE40EF51ED9
:1015F00026014B185108892D90E0AA24BB24A81A73
:10160000B90A5FEF0F3F150729F48EE290E0B301AE
:101610000E949110C016D10634F0401651061CF4F9
:10162000F701808101C080E3015010400894E11C63
:10163000F11C0A151B052CF090E0B3010E949110DB
:10164000E0CF0C151D0539F49A81963318F49533C3
:1016500011F424FE81E390E04BC08A81813309F0CC
:101660000F7E90E0B3010E9491109920A1F08EE2CC
:1016700090E0B3010E94911012E0E1E0F0E0EC0F85
:10168000FD1FE10FF11D1F5F808190E0B3010E94FB
:1016900091109A9491F744FC03C085E690E002C053
:1016A00085E490E0B3010E949110D7FC05C0C114FD
:1016B000D10441F404FF06C0D094C194D108D3945E
:1016C0008DE201C08BE290E0B3010E94911080E3B3
:1016D00005C08F5F26EF3FEFC20ED31E3AE0C31660
:1016E000D104BCF790E0B3010E949110C601C096EE
:1016F000B3010E949110CC84DD8452C1933631F045
:10170000933799F0933509F059C023C0F6018081D1
:1017100089835E010894A11CB11C22E030E0C20E56
:10172000D31E21E0E22EF12C12C0F601A080B18080
:1017300016FD03C06FEF7FEF02C0692D70E022E05D
:1017400030E0C20ED31EC5010E9486107C011F77B7
:1017500013C0F601A080B18016FD03C06FEF7FEFCC
:1017600002C0692D70E022E030E0C20ED31EC50138
:101770000E947B107C01106813FF07C01BC080E231
:1017800090E0B3010E9491108A94882D90E0E816B1
:10179000F906A8F30FC0F50117FD859117FF819198
:1017A0005F0190E0B3010E94911081108A94089427
:1017B000E108F108E114F10471F7F2C0943611F078
:1017C000993689F517FF08C0F601208131814281E1
:1017D000538184E090E00AC0F601808191819C01F0
:1017E000442737FD4095542F82E090E0C80ED91E63
:1017F0009FE6F92EF12257FF09C05095409530958C
:1018000021953F4F4F4F5F4F90E8F92ACA01B90128
:10181000AE014F5F5F4F2AE030E00E94E110E82EFA
:10182000E889EE1A41C0953721F41F7E2AE030E0A6
:101830001CC0197F9F3661F0903720F4983509F06D
:10184000B2C00FC0903739F0983709F0ACC004C06F
:1018500028E030E00AC0106114FD146020E130E09F
:1018600004C014FD166020E132E017FF08C0F60145
:10187000608171818281938144E050E008C0F6016B
:1018800080819181BC0180E090E042E050E0C40E94
:10189000D51EAE014F5F5F4F0E94E110E82E5889C0
:1018A000E51A8FE7F82EF122F6FE0BC08EEFF82234
:1018B000E91438F4F4FE07C0F2FC05C09FEEF922EB
:1018C00002C01E2D01C0192DF4FE0DC0FE01EE0D4B
:1018D000F11D8081803319F4E9EEFE2208C01F5FFC
:1018E000F2FE05C003C08F2D867809F01F5F0F2D13
:1018F000F3FC14C0F0FE0FC0181510F09E2C0BC0A6
:101900009E2C980C911A182D06C080E290E0B3012D
:101910000E9491101F5F1815C0F304C0181510F431
:10192000811A01C0882404FF0FC080E390E0B30156
:101930000E94911002FF1DC001FD03C088E790E0E6
:101940000EC088E590E00BC0802F867891F001FFF3
:1019500002C08BE201C080E2F7FC8DE290E0B301AF
:101960000E94911006C080E390E0B3010E949110A4
:101970009A94E914C0F3EA94E1E0F0E0EC0FFD1F63
:10198000EE0DF11D808190E0B3010E949110EE20D8
:1019900091F706C080E290E0B3010E9491108A9412
:1019A0008820C1F799CCF30166817781CB016196DC
:1019B000E2E10C946D0F5058BB27AA270ED070C1DE
:1019C00061D130F066D120F031F49F3F11F41EF464
:1019D00056C10EF4E095E7FB4CC1E92F72D180F3BC
:1019E000BA17620773078407950718F071F49EF51C
:1019F0008AC10EF4E0950B2EBA2FA02D0B01B90170
:101A000090010C01CA01A0011124FF27591B99F074
:101A1000593F50F4503E68F11A16F040A22F232F80
:101A2000342F4427585FF3CF469537952795A795D0
:101A3000F0405395C9F77EF41F16BA0B620B730B77
:101A4000840BBAF09150A1F0FF0FBB1F661F771FE8
:101A5000881FC2F70EC0BA0F621F731F841F48F49D
:101A6000879577956795B795F7959E3F08F0B3CF23
:101A70009395880F08F09927EE0F9795879508950D
:101A8000D4D008F481E008950CD00AC102D140F00E
:101A9000F9D030F021F45F3F19F0EBC0511134C19F
:101AA000EEC00FD198F39923C9F35523B1F3951BD9
:101AB000550BBB27AA2762177307840738F09F5F6F
:101AC0005F4F220F331F441FAA1FA9F333D00E2EDE
:101AD0003AF0E0E830D091505040E695001CCAF74B
:101AE00029D0FE2F27D0660F771F881FBB1F261710
:101AF00037074807AB07B0E809F0BB0B802DBF01E3
:101B0000FF2793585F4F2AF09E3F510568F0B1C000
:101B1000FBC05F3FECF3983EDCF3869577956795C5
:101B2000B795F7959F5FC9F7880F911D9695879593
:101B300097F90895E1E0660F771F881FBB1F6217B2
:101B400073078407BA0720F0621B730B840BBA0B70
:101B5000EE1F88F7E0950895BCD088F09F5790F06D
:101B6000B92F9927B751A0F0D1F0660F771F881FC2
:101B7000991F1AF0BA95C9F712C0B13081F0C3D0DD
:101B8000B1E00895C0C0672F782F8827B85F39F07B
:101B9000B93FCCF3869577956795B395D9F73EF421
:101BA00090958095709561957F4F8F4F9F4F0895C9
:101BB000E89409C097FB3EF49095809570956195E7
:101BC0007F4F8F4F9F4F9923A9F0F92F96E9BB279D
:101BD0009395F695879577956795B795F111F8CF19
:101BE000FAF4BB0F11F460FF1BC06F5F7F4F8F4F84
:101BF0009F4F16C0882311F096E911C0772321F07A
:101C00009EE8872F762F05C0662371F096E8862F11
:101C100070E060E02AF09A95660F771F881FDAF768
:101C2000880F9695879597F90895990F0008550F95
:101C3000AA0BE0E8FEEF16161706E807F907C0F052
:101C400012161306E407F50798F0621B730B840B5A
:101C5000950B39F40A2661F0232B242B252B21F434
:101C600008950A2609F4A140A6958FEF811D811DD4
:101C7000089597F99F6780E870E060E008959FEF0E
:101C800080EC089500240A94161617061806090613
:101C9000089500240A9412161306140605060895E2
:101CA000092E0394000C11F4882352F0BB0F40F46A
:101CB000BF2B11F460FF04C06F5F7F4F8F4F9F4FAA
:101CC000089557FD9058440F551F59F05F3F71F02C
:101CD0004795880F97FB991F61F09F3F79F0879593
:101CE0000895121613061406551FF2CF4695F1DF1C
:101CF00008C0161617061806991FF1CF86957105AC
:101D0000610508940895E894BB2766277727CB01DF
:101D100097F908958ADF08F48FEF08950BD0C0CFAC
:101D2000B1DF28F0B6DF18F0952309F0A2CFA7CFD6
:101D30001124EACFC6DFA0F3959FD1F3950F50E0B1
:101D4000551F629FF001729FBB27F00DB11D639F6D
:101D5000AA27F00DB11DAA1F649F6627B00DA11D13
:101D6000661F829F2227B00DA11D621F739FB00DB9
:101D7000A11D621F839FA00D611D221F749F332729
:101D8000A00D611D231F849F600D211D822F762FC2
:101D90006A2F11249F5750408AF0E1F088234AF0BF
:101DA000EE0FFF1FBB1F661F771F881F915050400B
:101DB000A9F79E3F510570F05CCFA6CF5F3FECF3D3
:101DC000983EDCF3869577956795B795F795E795F7
:101DD0009F5FC1F7FE2B880F911D9695879597F908
:101DE0000895629FD001739FF001829FE00DF11D65
:101DF000649FE00DF11D929FF00D839FF00D749F85
:101E0000F00D659FF00D9927729FB00DE11DF91F30
:101E1000639FB00DE11DF91FBD01CF01112408958D
:101E2000991B79E004C0991F961708F0961B881F2C
:101E30007A95C9F78095089597FB092E07260AD051
:101E400077FD04D065D006D000201AF47095619516
:101E50007F4F0895F6F7909581959F4F0895A1E2E1
:101E60001A2EAA1BBB1BFD010DC0AA1FBB1FEE1F14
:101E7000FF1FA217B307E407F50720F0A21BB30B5F
:101E8000E40BF50B661F771F881F991F1A9469F7DB
:101E900060957095809590959B01AC01BD01CF0137
:101EA00008952F923F924F925F926F927F928F92FE
:101EB0009F92AF92BF92CF92DF92EF92FF920F93D9
:101EC0001F93CF93DF93CDB7DEB7CA1BDB0B0FB6E3
:101ED000F894DEBF0FBECDBF09942A8839884888A0
:101EE0005F846E847D848C849B84AA84B984C88436
:101EF000DF80EE80FD800C811B81AA81B981CE0F2D
:101F0000D11D0FB6F894DEBF0FBECDBFED01089511
:101F1000AA1BBB1B51E107C0AA1FBB1FA617B7070F
:101F200010F0A61BB70B881F991F5A95A9F780952B
:101F30009095BC01CD010895283008F027E03327A3
:101F4000DA01990F311D87FD9160009661057105D9
:101F500039F432602E5F3D9330E32A95E1F708951E
:101F60009F3F30F080387105610509F03C5F3C5FB0
:101F70003D93913008F08068911DDF93CF931F93BC
:101F80000F93FF92EF92192F987F9695E92F9695D0
:101F90009695E90FFF27E15BFE4F99273327EE2443
:101FA000FF24A701E70105900894079428F4360F51
:101FB000E71EF81E491F511D660F771F881F991FC6
:101FC0000694A1F70590079428F4E70EF81E491F20
:101FD000561FC11D770F881F991F661F0694A1F712
:101FE0000590079428F4F80E491F561FC71FD11DEE
:101FF000880F991F661F771F0694A1F70590079415
:1020000020F4490F561FC71FD81F990F661F771F4F
:10201000881F0694A9F784911095177041F0D69502
:10202000C79557954795F794E7941A95C1F7E5EF4B
:10203000F0E0689415901591359165919591059012
:102040007FE27395E118F10A430B560BC90BD009D7
:10205000C0F7E10CF11E431F561FC91FD01D7EF4AF
:10206000703311F48A95E6CFE894015030F0080FF0
:102070000AF40027021708F4202F2395022F7A3341
:1020800028F079E37D932A95E9F710C07D932A958E
:1020900089F6069497956795379517951794E118E3
:1020A000F10A430B560BC90BD00998F023957E918A
:1020B00073957A3308F070E37C932013B8F77E9120
:1020C00070617D9330F0839571E37D9370E32A9581
:1020D000E1F71124EF90FF900F911F91CF91DF91C5
:1020E000992787FD90950895FB01DC0105900D92DD
:1020F0000020E1F70895FC01059061507040011047
:10210000D8F7809590958E0F9F1F0895FC01615020
:10211000704001900110D8F7809590958E0F9F1F09
:1021200008950F931F93CF93DF938C01EB018B8165
:1021300081FF1BC082FF0DC02E813F818C819D815C
:102140002817390764F4E881F9810193F983E8835A
:1021500006C0E885F985802F0995892B31F48E8199
:102160009F8101969F838E8302C00FEF1FEFC801EE
:10217000DF91CF911F910F910895AEE0B0E0E3ECB5
:10218000F0E10C945F0F0D891E8986E08C831A8321
:1021900009838FEF9FE79E838D839E01275E3F4FCC
:1021A000CE0101966F89788DA9010E9454092F8173
:1021B0003885020F131FF80110822E96E4E00C946C
:1021C0007B0FFA01AA27283051F1203181F1E894E0
:1021D0006F936E7F6E5F7F4F8F4F9F4FAF4FB1E01A
:1021E0003ED0B4E03CD0670F781F891F9A1FA11D15
:1021F000680F791F8A1F911DA11D6A0F711D811D16
:10220000911DA11D20D009F468943F912AE0269FDA
:1022100011243019305D3193DEF6CF010895462F39
:102220004770405D4193B3E00FD0C9F7F6CF462F1A
:102230004F70405D4A3318F0495D31FD4052419383
:1022400002D0A9F7EACFB4E0A69597958795779540
:102250006795BA95C9F700976105710508959B01C7
:10226000AC010A2E06945795479537952795BA9550
:10227000C9F7620F731F841F951FA01D0895A6E163
:10228000B0E044E050E00C9453110396272F0E94D5
:1022900062110E946111252F0E946211242F0C945B
:1022A0006211DC01CB01FC01F999FECF06C0F2BD41
:1022B000E1BDF89A319600B40D9241505040B8F704
:1022C0000895262FF999FECF92BD81BDF89A019706
:1022D00000B4021639F01FBA20BD0FB6F894FA9A6E
:0A22E000F99A0FBE0895F894FFCF9D
:1022EA000C12120C000000000C1204081E00000060
:1022FA000A15110A040000000305090B0B1818003F
:10230A001F0E0E0404040404010105051515150029
:10231A000E11111F1F1F1F00000000000000000007
:10232A004C4F4144494E472E2E2E0020A107005201
:10233A003A256C75004C3A2025332E3266256348BF
:10234A0000433A2025332E326625634600504E500C
:10235A00004E504E00313A256320323A256320332D
:10236A003A256320257300426574613A2534642056
:10237A00202020202020009F072F07D1060D08CEFD
:08238A0006CB06350600000138
:00000001FF
