:100000000C9434000C9451000C9451000C94510049
:100010000C9451000C9451000C9451000C9451001C
:100020000C9451000C9451000C9451000C9451000C
:100030000C9451000C94A8020C9451000C945100A3
:100040000C9451000C9451000C9451000C945100EC
:100050000C9451000C9451000C9451000C945100DC
:100060000C9451000C94510011241FBECFEFD8E026
:10007000DEBFCDBF11E0A0E0B1E0E0EAF6E102C0F2
:1000800005900D92A438B107D9F711E0A4E8B1E0CA
:1000900001C01D92A13AB107E1F70E9453000C94F0
:1000A0004E0B0C940000AF92BF92CF92DF92EF9272
:1000B000FF921F93CF93DF930E946D02C5E8D1E0BA
:1000C00020E0A22E21E0B22E96E0C92E91E0D92E9A
:1000D00080E9E82E81E0F82E81E060E00E94F500E2
:1000E00085E991E00E949B05182F8DB79EB7089770
:1000F0000FB6F8949EBF0FBE8DBFEDB7FEB7319619
:10010000ADB7BEB71296DC93CE931197B382A2829D
:100110008091950190919601A0919701B0919801DD
:1001200084839583A683B7830E9476088DB79EB794
:1001300008960FB6F8949EBF0FBE8DBF81E060E0B9
:100140000E94F500CE010E94AA0100D000D000D08C
:10015000EDB7FEB73196ADB7BEB71296DC93CE932E
:100160001197D382C282148315820E9476088DB7BC
:100170009EB706960FB6F8949EBF0FBE8DBF80E067
:1001800061E00E943A01CE010E94AA0180E29EE451
:10019000F7013197F1F70197D9F79ECF877021E0EA
:1001A00030E002C0220F331F8A95E2F7209580913C
:1001B000840182238093840184E891E068E00E94B6
:1001C0002E020895877021E030E002C0220F331F15
:1001D0008A95E2F780918401822B8093840184E8E0
:1001E00091E068E00E942E0208950F931F93082F5C
:1001F000662321F481E00E94CE0003C081E00E94CA
:10020000E200902F907F809184018F70982B9093C3
:10021000840184E891E068E00E942E0283E00E945D
:10022000E20015E3812F8A95F1F783E00E94CE006A
:10023000812F8A95F1F70295007F809184018F705C
:10024000802B8093840184E891E068E00E942E0274
:1002500083E00E94E200812F8A95F1F783E00E94FB
:10026000CE001A95F1F780E29EE40197F1F71F9115
:100270000F910895843178F4623031F0633031F0B9
:10028000613029F4806403C08C5E01C08C5A8068A0
:1002900060E00E94F5000895EF92FF920F931F9384
:1002A000DF93CF9300D000D00F92CDB7DEB79C0183
:1002B0008B01FE01319685E0DF011D928A95E9F7F9
:1002C000FE0135960DC0C9016AE070E00E942D085C
:1002D0008083C9016AE070E00E942D089B0131977C
:1002E0002115310581F7BFEF0F3F1B0779F420E09F
:1002F00030E0AE014F5F5F4F02C02F5F3F4FFA010A
:10030000E20FF31F80818823C1F304C025E030E0B1
:10031000201B310B7E010894E11CF11CE20EF31E40
:10032000890109C0F70181917F01805D61E00E9430
:10033000F5000F5F1F4F05301105A4F30F900F90CC
:100340000F900F900F90CF91DF911F910F91FF9021
:10035000EF900895CF93DF93EC0110C0853251F4F4
:10036000219688818053883028F085E261E00E94E0
:10037000F500888161E00E94F5002196888188233C
:1003800069F7DF91CF9108950F931F93CF93DF9378
:10039000082F0E9419021092840183E00E94CE006F
:1003A00082E00E94CE0081E00E94CE008CE291E0CB
:1003B00020E931E0F9013197F1F70197D9F7809100
:1003C000840180628093840184E891E068E00E9467
:1003D0002E0283E00E94E20015E3812F8A95F1F757
:1003E00083E00E94CE001A95F1F780E29EE4019727
:1003F000F1F7802F8C6060E00E94F50088E260E0F9
:100400000E94F50080E460E00E94F500CFE0D1E0BA
:10041000899161E00E94F50081E0CF34D807C1F7EF
:1004200080E060E00E943A01DF91CF911F910F912F
:100430000895209A569A579A28982E985F9808956A
:10044000882311F05F9A01C05F985E9A8AE6982F20
:100450009A95F1F75E988A95F1F70895CF92DF9219
:10046000EF92FF920F931F93CF93DF937C01062FA0
:1004700011E0C62FD0E081E0C82ED12C1BC09E0118
:10048000211B3109C90168E070E00E942D08FB01C1
:10049000EE0DFF1DC90168E070E00E942D08960175
:1004A00002C0220F331F8A95E2F7808182230E94C7
:1004B00020021F5F011718F7289A8AE6982F9A954D
:1004C000F1F728988A95F1F7DF91CF911F910F915D
:1004D000FF90EF90DF90CF90089583E00E94C401D9
:1004E00081E060E00E94F5008FE491E00E94AA01A3
:1004F00088EE93E020E931E0F9013197F1F70197B7
:10050000D9F70E94B90208958770806480937C00B7
:1005100085E080937A0080917A00806880937A00E9
:1005200080917A00806480937A0080917A0084FFC1
:10053000FCCF80917A00806180937A00909178005E
:1005400080917900382F20E0290F311DC9010895CD
:100550001F920F920FB60F9211248F9380919F01DB
:100560008F5F80939F018F910F900FBE0F901F9010
:10057000189555981092800086E080938100109223
:100580008200089510929F011092850010928400BD
:100590008FEF86BB80916F00816080936F007894AD
:1005A00088EE93E020E931E0F9013197F1F7019706
:1005B000D9F780916F008E7F80936F0060919F01CB
:1005C000209184003091850070E080E090E0CB01C4
:1005D0007727662740E050E0620F731F841F951F46
:1005E0002AE030E040E050E00E940208089541987F
:1005F0004298439840982C982A982D982B9829989F
:1006000039983A983B9838982498229825982398B6
:1006100021980895CF93DF93EC010E94F7028D811A
:10062000882309F049C08881813019F4259A2D9AD0
:1006300009C0823019F4239A2B9A04C0833011F434
:10064000219A299A8981813019F4389A409A09C0EF
:10065000823019F4249A2C9A04C0833011F4229A1F
:100660002A9A9A81913019F4399A419809C09230A6
:1006700019F43A9A429804C0933011F43B9A439883
:100680000E9484029C01220F331F220F331F280F68
:10069000391F40E050E0CA01B9010E94110720E073
:1006A00030E040E85AEB0E949F0720E030E040EA4B
:1006B00050E40E94190645C0813009F052C088817B
:1006C000813019F4259A2D9809C0823019F4239AA3
:1006D0002B9804C0833011F4219A299889818130A4
:1006E00019F4389A409809C0823019F4249A2C9849
:1006F00004C0833011F4229A2A989A81913019F417
:10070000399A419A09C0923019F43A9A429A04C02F
:10071000933011F43B9A439A0E9484029C01220F69
:10072000331F220F331F280F391F40E050E0CA014A
:10073000B9010E94110720E030E040E85AE30E942E
:100740009F0720E030E04AE754E40E949F072AE92F
:1007500039E949E850E40E947D060E94E5067C8361
:100760006B830E94F70281E0DF91CF9108950F9390
:100770001F93082F162F0E94F702013019F4389AA0
:10078000409A07C0023019F4249A2C9A02C0229A87
:100790002A9A113019F4399A419809C0123019F483
:1007A0003A9A429804C0133011F43B9A439888EE69
:1007B00093E020E931E0F9013197F1F70197D9F79A
:1007C000802F0E948402182F092F0E94F702812F88
:1007D000902F1F910F910895EF92FF920F931F9307
:1007E000DF93CF93CDB7DEB768970FB6F894DEBF2F
:1007F0000FBECDBFFE013D968CE0DF011D928A95B4
:10080000E9F7FE01319686E0DF011D928A95E9F74E
:1008100081E062E00E94B7039E878D8781E063E0FC
:100820000E94B703988B8F8782E061E00E94B70334
:100830009A8B898B82E063E00E94B7039C8B8B8B41
:1008400083E061E00E94B7039E8B8D8B83E062E0C2
:100850000E94B703BC01988F8F8B4D855E852F85D5
:100860003889B3E0483E5B07E0F4E3E0283E3E070A
:1008700040F481E089831E824217530708F04FC07D
:100880004AC0F3E0883E9F0708F063C082E0898396
:1008900091E09E834617570710F49A833EC083E089
:1008A00015C083E0283E3807A0F44B895C8993E0AB
:1008B000483E590708F04DC083E0898391E09E834C
:1008C0002417350710F49A833EC082E08A839B8305
:1008D00040C029893A89A3E0283E3A0710F54B89A0
:1008E0005C89B3E0483E5B0750F482E089831E8256
:1008F0002417350710F481E00FC083E027C04D892D
:100900005E89E3E0483E5E0720F581E089838E83BF
:100910002417350720F482E08A8383E019C083E03E
:1009200011C02D893E89F3E0283E3F0790F483E013
:10093000683E780770F483E089831E8226173707A4
:1009400020F481E08A8382E003C082E08A8381E030
:100950008B83CE0101960E940A0349815A816B81E3
:100960008E81882319F02AE531E002C02EE531E0BE
:10097000ADB7BEB71C970FB6F894BEBF0FBEADBFE4
:10098000EDB7FEB7319675E8E72E71E0F72E1296B7
:10099000FC92EE92119782E691E0938382834483E6
:1009A00015825683178260871186338722870E94BB
:1009B0007608EDB7FEB73C960FB6F894FEBF0FBEB3
:1009C000EDBF81E060E00E94F500C7010E94AA012E
:1009D00080E061E00E943A018091A00166E00E94FF
:1009E0002108E92F9093A001F0E08DB79EB70A97F8
:1009F0000FB6F8949EBF0FBE8DBF2DB73EB72F5FC9
:100A00003F4FADB7BEB71296FC92EE92119784E7B6
:100A100091E0D90113969C938E9312978C819D81BE
:100A200015969C938E9314971796FC93EE931697B6
:100A3000EE0FFF1F8E010F5F1F4FE00FF11F848528
:100A4000958519969C938E9318970E9476088091AD
:100A5000A0018F5F8093A001EDB7FEB73A960FB665
:100A6000F894FEBF0FBEEDBFC7010E94AA01DE01D0
:100A70001796F80186E001900D928150E1F72F81E1
:100A8000388549855A856B857C8590E068960FB6D8
:100A9000F894DEBF0FBECDBFCF91DF911F910F91B4
:100AA000FF90EF900895CF92DF92EF92FF920F9315
:100AB0001F93CF93DF93EC01C62E81E0E82EF12C3B
:100AC000012D112DDD24D3940BC0C801B7012AE0FC
:100AD00030E040E050E00E9402087B018C01D3949A
:100AE000DC1498F3BE0180E090E020E332E040E0C7
:100AF00050E00E94020820E034E02C1B3D0B40E057
:100B000050E00E944008C801B7010E940208DF912E
:100B1000CF911F910F91FF90EF90DF90CF900895AC
:100B20003D9845983B9843985098589851985998B3
:100B30003C9844980895CF93DF93EC010E94900570
:100B40003D9A459A88EE93E020E931E0F90131972A
:100B5000F1F70197D9F784E00E9484023D98459807
:100B600022E08D3B920748F461E00E9453056883C0
:100B700079838A839B8381E058C03B9A439A88EEAD
:100B800093E020E931E0F9013197F1F70197D9F7C6
:100B900084E00E9484023B98439822E08D3B9207B8
:100BA00048F462E00E945305688379838A839B83BB
:100BB00082E03BC0509A589A88EE93E020E931E0F9
:100BC000F9013197F1F70197D9F784E00E94840287
:100BD0005098589822E08D3B920748F463E00E94B9
:100BE0005305688379838A839B8383E01EC0519A6F
:100BF000599A88EE93E020E931E0F9013197F1F755
:100C00000197D9F784E00E9484025198599823E013
:100C1000883E920710F08AE008C064E00E94530505
:100C2000688379838A839B8384E0DF91CF910895E1
:100C30005058BB27AA270ED048C139D130F03ED139
:100C400020F031F49F3F11F41EF42EC10EF4E09514
:100C5000E7FB24C1E92F4AD180F3BA176207730773
:100C60008407950718F071F49EF562C10EF4E095C3
:100C70000B2EBA2FA02D0B01B90190010C01CA0156
:100C8000A0011124FF27591B99F0593F50F4503E01
:100C900068F11A16F040A22F232F342F4427585FF3
:100CA000F3CF469537952795A795F0405395C9F70B
:100CB0007EF41F16BA0B620B730B840BBAF09150C3
:100CC000A1F0FF0FBB1F661F771F881FC2F70EC062
:100CD000BA0F621F731F841F48F487957795679535
:100CE000B795F7959E3F08F0B3CF9395880F08F01E
:100CF0009927EE0F9795879508950CD0E6C0DED022
:100D000040F0D5D030F021F45F3F19F0C7C0511149
:100D100010C1CAC0EBD098F39923C9F35523B1F39E
:100D2000951B550BBB27AA2762177307840738F05A
:100D30009F5F5F4F220F331F441FAA1FA9F333D0B9
:100D40000E2E3AF0E0E830D091505040E695001C6D
:100D5000CAF729D0FE2F27D0660F771F881FBB1F29
:100D6000261737074807AB07B0E809F0BB0B802D03
:100D7000BF01FF2793585F4F2AF09E3F510568F04F
:100D80008DC0D7C05F3FECF3983EDCF38695779536
:100D90006795B795F7959F5FC9F7880F911D969551
:100DA000879597F90895E1E0660F771F881FBB1FAD
:100DB000621773078407BA0720F0621B730B840B5A
:100DC000BA0BEE1F88F7E095089598D088F09F57EA
:100DD00090F0B92F9927B751A0F0D1F0660F771F87
:100DE000881F991F1AF0BA95C9F712C0B13081F067
:100DF0009FD0B1E008959CC0672F782F8827B85FF7
:100E000039F0B93FCCF3869577956795B395D9F7C7
:100E10003EF490958095709561957F4F8F4F9F4FD1
:100E20000895E89409C097FB3EF4909580957095DD
:100E300061957F4F8F4F9F4F9923A9F0F92F96E926
:100E4000BB279395F695879577956795B795F1119B
:100E5000F8CFFAF4BB0F11F460FF1BC06F5F7F4F38
:100E60008F4F9F4F16C0882311F096E911C077234A
:100E700021F09EE8872F762F05C0662371F096E853
:100E8000862F70E060E02AF09A95660F771F881F22
:100E9000DAF7880F9695879597F9089597F99F67E0
:100EA00080E870E060E008959FEF80EC08950024F2
:100EB0000A941616170618060906089500240A94BF
:100EC00012161306140605060895092E0394000C45
:100ED00011F4882352F0BB0F40F4BF2B11F460FFD4
:100EE00004C06F5F7F4F8F4F9F4F089557FD9058FD
:100EF000440F551F59F05F3F71F04795880F97FBDE
:100F0000991F61F09F3F79F0879508951216130697
:100F10001406551FF2CF4695F1DF08C016161706C6
:100F20001806991FF1CF86957105610508940895FB
:100F3000E894BB2766277727CB0197F908950BD054
:100F4000C4CFB5DF28F0BADF18F0952309F0A6CF9B
:100F5000ABCF1124EECFCADFA0F3959FD1F3950F4D
:100F600050E0551F629FF001729FBB27F00DB11D2D
:100F7000639FAA27F00DB11DAA1F649F6627B00DBD
:100F8000A11D661F829F2227B00DA11D621F739FA6
:100F9000B00DA11D621F839FA00D611D221F749FB4
:100FA0003327A00D611D231F849F600D211D822FFB
:100FB000762F6A2F11249F5750408AF0E1F0882342
:100FC0004AF0EE0FFF1FBB1F661F771F881F91504F
:100FD0005040A9F79E3F510570F060CFAACF5F3F08
:100FE000ECF3983EDCF3869577956795B795F79582
:100FF000E7959F5FC1F7FE2B880F911D969587950A
:1010000097F90895629FD001739FF001829FE00DD0
:10101000F11D649FE00DF11D929FF00D839FF00D77
:10102000749FF00D659FF00D9927729FB00DE11D23
:10103000F91F639FB00DE11DF91FBD01CF01112400
:101040000895991B79E004C0991F961708F0961B24
:10105000881F7A95C9F78095089597FB092E072672
:101060000AD077FD04D02ED006D000201AF4709557
:1010700061957F4F0895F6F7909581959F4F08955C
:10108000A1E21A2EAA1BBB1BFD010DC0AA1FBB1F8C
:10109000EE1FFF1FA217B307E407F50720F0A21BFE
:1010A000B30BE40BF50B661F771F881F991F1A946B
:1010B00069F760957095809590959B01AC01BD0195
:1010C000CF010895AA1BBB1B51E107C0AA1FBB1F7C
:1010D000A617B70710F0A61BB70B881F991F5A95C4
:1010E000A9F780959095BC01CD010895AEE0B0E0E0
:1010F000ECE7F8E00C94250B0D891E8986E08C83C3
:101100001A8309838FEF9FE79E838D839E01275E5D
:101110003F4FCE0101966F89788DA9010E949A08F0
:101120002F813885020F131FF80110822E96E4E0FC
:101130000C94410BABE0B0E0E0EAF8E00C94170B44
:101140003C012B015A01FC0117821682838181FD2B
:1011500003C06FEF7FEFC6C19AE0892E1E0108948D
:10116000211C311CF3012381F20123FD859123FF12
:1011700081912F01882309F4B2C1853239F423FD0E
:10118000859123FF81912F01853229F490E0B301ED
:101190000E948D0AE7CF982FFF24EE249924FFE1C7
:1011A000FF15D0F09B3269F09C3228F4903259F050
:1011B000933291F40EC09D3249F0903369F441E0CE
:1011C00024C052E0F52A84E0F82A28C098E0F92AE1
:1011D00025C0E0E1FE2A22C0F7FC29C0892F8053F8
:1011E0008A3070F4F6FE05C0989C902C1124980E5D
:1011F00015C0E89CE02C1124E80EF0E2FF2A0EC096
:101200009E3229F4F6FC6BC140E4F42A07C09C36F8
:1012100019F450E8F52A02C0983649F4F20123FD8A
:10122000959123FF91912F01992309F0B8CF892F30
:101230008554833018F08052833038F444E050E015
:10124000A40EB51E5FE359830FC0933631F0933778
:1012500079F0933509F056C020C0F501808189836B
:1012600042E050E0A40EB51E610101E010E012C0A2
:10127000F501C080D180F6FC03C06FEF7FEF02C0A4
:10128000692D70E042E050E0A40EB51EC6010E9438
:10129000820A8C015FE7F52214C0F501C080D1807D
:1012A000F6FC03C06FEF7FEF02C0692D70E042E0F3
:1012B00050E0A40EB51EC6010E94770A8C0150E8CA
:1012C000F52AF3FE07C01AC080E290E0B3010E9445
:1012D0008D0AEA948E2D90E008171907A8F30EC026
:1012E000F601F7FC8591F7FE81916F0190E0B30163
:1012F0000E948D0AE110EA94015010400115110579
:1013000079F7EAC0943611F0993669F5F7FE08C00E
:10131000F501208131814281538184E090E00AC04F
:10132000F501808191819C01442737FD4095542F20
:1013300082E090E0A80EB91E9FE6F92257FF09C08F
:1013400050954095309521953F4F4F4F5F4FE0E8C6
:10135000FE2ACA01B901A1012AE030E00E94B90ABF
:10136000D82ED21840C0953729F41F2D1F7E2AE0B1
:1013700030E01DC01F2D197F9F3661F0903720F49B
:10138000983509F0ACC00FC0903739F0983709F0A4
:10139000A6C004C028E030E00AC0106114FD14604B
:1013A00020E130E004C014FD166020E132E017FFB8
:1013B00008C0F501608171818281938144E050E031
:1013C00008C0F50180819181BC0180E090E042E09D
:1013D00050E0A40EB51EA1010E94B90AD82ED21861
:1013E0008FE7F82EF122F6FE0BC05EEFF522D9143E
:1013F00038F4F4FE07C0F2FC05C08FEEF82202C0FC
:101400001D2D01C0192DF4FE0DC0FE01ED0DF11DC5
:101410008081803319F499EEF92208C01F5FF2FE33
:1014200005C003C08F2D867809F01F5F0F2DF3FCD8
:1014300014C0F0FE0FC01E1510F09D2C0BC09D2C8B
:101440009E0C911A1E2D06C080E290E0B3010E940E
:101450008D0A1F5F1E15C0F304C01E1510F4E11A9B
:1014600001C0EE2404FF0FC080E390E0B3010E94AE
:101470008D0A02FF1DC001FD03C088E790E00EC089
:1014800088E590E00BC0802F867891F001FF02C0C4
:101490008BE201C080E2F7FC8DE290E0B3010E9494
:1014A0008D0A06C080E390E0B3010E948D0A9A94F1
:1014B000D914C0F3DA94F101ED0DF11D808190E0B3
:1014C000B3010E948D0ADD20A9F706C080E290E0FA
:1014D000B3010E948D0AEA94EE20C1F743CEF301D6
:1014E00066817781CB012B96E2E10C94330BFC01F2
:1014F0000590615070400110D8F7809590958E0F3F
:101500009F1F0895FC016150704001900110D8F7B1
:10151000809590958E0F9F1F08950F931F93CF93E3
:10152000DF938C01EB018B8181FF1BC082FF0DC01B
:101530002E813F818C819D812817390764F4E881D1
:10154000F9810193F983E88306C0E885F985802F46
:101550000995892B31F48E819F8101969F838E831B
:1015600002C00FEF1FEFC801DF91CF911F910F91C4
:101570000895FA01AA27283051F1203181F1E89429
:101580006F936E7F6E5F7F4F8F4F9F4FAF4FB1E076
:101590003ED0B4E03CD0670F781F891F9A1FA11D71
:1015A000680F791F8A1F911DA11D6A0F711D811D72
:1015B000911DA11D20D009F468943F912AE0269F37
:1015C00011243019305D3193DEF6CF010895462F96
:1015D0004770405D4193B3E00FD0C9F7F6CF462F77
:1015E0004F70405D4A3318F0495D31FD40524193E0
:1015F00002D0A9F7EACFB4E0A6959795879577959D
:101600006795BA95C9F700976105710508959B0123
:10161000AC010A2E06945795479537952795BA95AC
:10162000C9F7620F731F841F951FA01D08952F9285
:101630003F924F925F926F927F928F929F92AF9262
:10164000BF92CF92DF92EF92FF920F931F93CF93AF
:10165000DF93CDB7DEB7CA1BDB0B0FB6F894DEBF46
:101660000FBECDBF09942A88398848885F846E846C
:101670007D848C849B84AA84B984C884DF80EE80B6
:10168000FD800C811B81AA81B981CE0FD11D0FB6BF
:10169000F894DEBF0FBECDBFED010895F894FFCFE3
:1016A000523A256C7500726573203D202564000C4C
:1016B00012120C000000000C1204081E0000000AA8
:1016C00015110A040000000305090B0B1818001F70
:1016D0000E0E040404040401010505151515000E81
:1016E00011111F1F1F1F0000000000000000004C10
:1016F0004F4144494E472E2E2E00504E50004E5022
:101700004E00423A256420433A256420453A256438
:1017100020257300426574613A2025642025643ACF
:04172000256400003C
:00000001FF
