:100000000C94F8000C9417010C9428010C94150121
:100010000C9415010C9415010C9415010C94150108
:100020000C9415010C9415010C9415010C941501F8
:100030000C9415010C9433030C9415010C941501C8
:100040000C9415010C9415010C9415010C941501D8
:100050000C9415010C9415010C9415010C941501C8
:100060000C9415010C941501312E436F6E64656E6E
:100070007361646F7220202000322E496E647563B4
:1000800074616E63696120202000332E52657369AC
:100090007374656E63696120202000342E54726190
:1000A0006E736973746F7220202020004C4C45479A
:1000B0004952202020202020202020200043414C95
:1000C0002020202020202020202020202000454EFD
:1000D000524552452020202020202020202000684A
:1000E0000079008A009B00AC00BD00CE006E616EFE
:1000F00000696E660000407A10F35A00A0724E1834
:10010000090010A5D4E80000E87648170000E40BC9
:1001100054020000CA9A3B000000E1F5050000808F
:10012000969800000040420F000000A086010000E9
:1001300000102700000000E8030000000064000039
:100140000000000A00000000000100000000002C78
:1001500076D888DC674F0823DFC1DFAE59E1B1B73D
:1001600096E5E3E453C63AE651997696E8E6C2840A
:1001700026EB898C9B62ED407C6FFCEFBC9C9F4022
:10018000F2BAA56FA5F490055A2AF75C936B6CF947
:10019000676DC11BFCE0E40D47FEF520E6B500D01D
:1001A000ED902E0300943577050080841E08000032
:1001B000204E0A000000C80C333333330F986E1200
:1001C000831141EF8D2114893BE65516CFFEE6DB06
:1001D00018D1844B381BF77C1D901DA4BBE4242050
:1001E0003284725E228100C9F124ECA1E53D270032
:1001F00011241FBECFEFD8E0DEBFCDBF11E0A0E0DD
:10020000B1E0E2E4F0E202C005900D92A039B1073E
:10021000D9F711E0A0E9B1E001C01D92A33BB107FD
:10022000E1F70E9443010C941F100C9400001F92F0
:100230000F920FB60F9211248F9381E080939F014C
:10024000109298018F910F900FBE0F901F901895EC
:100250001F920F920FB60F9211248F9381E080931B
:100260009F01809398018F910F900FBE0F901F9068
:100270001895529853985A9A5B9A109269008DB3C8
:1002800083608DBB08950E94F8020E9439010E948C
:100290001C0880E060E00E94C50180919F018130D0
:1002A000C1F710929F018091980190E00E9484060E
:1002B000F0CF877021E030E002C0220F331F8A9513
:1002C000E2F720958091900182238093900180E94C
:1002D00091E068E00E94B9020895877021E030E063
:1002E00002C0220F331F8A95E2F780919001822B82
:1002F0008093900180E991E068E00E94B90208953E
:100300000F931F93082F662321F481E00E94590167
:1003100003C081E00E946D01902F907F8091900139
:100320008F70982B9093900180E991E068E00E9493
:10033000B90283E00E946D0115E3812F8A95F1F7E0
:1003400083E00E945901812F8A95F1F70295007F81
:10035000809190018F70802B8093900180E991E0D3
:1003600068E00E94B90283E00E946D01812F8A95A6
:10037000F1F783E00E9459011A95F1F780E29EE4BB
:100380000197F1F71F910F910895843178F462304D
:1003900031F0633031F0613029F4806403C08C5E49
:1003A00001C08C5A806860E00E9480010895EF923D
:1003B000FF920F931F93DF93CF9300D000D00F9243
:1003C000CDB7DEB79C018B01FE01319685E0DF01E0
:1003D0001D928A95E9F7FE0135960DC0C9016AE0C4
:1003E00070E00E94C10D8083C9016AE070E00E9444
:1003F000C10D9B0131972115310581F7BFEF0F3FEB
:100400001B0779F420E030E0AE014F5F5F4F02C080
:100410002F5F3F4FFA01E20FF31F80818823C1F362
:1004200004C025E030E0201B310B7E010894E11C64
:10043000F11CE20EF31E890109C0F70181917F01D1
:10044000805D61E00E9480010F5F1F4F0530110544
:10045000A4F30F900F900F900F900F90CF91DF911A
:100460001F910F91FF90EF900895CF93DF93EC01D0
:1004700010C0853251F4219688818053883028F04D
:1004800085E261E00E948001888161E00E94800134
:1004900021968881882369F7DF91CF9108950F9382
:1004A0001F93CF93DF93082F0E94A4021092900114
:1004B00083E00E94590182E00E94590181E00E947C
:1004C00059018CE291E020E931E0F9013197F1F72F
:1004D0000197D9F78091900180628093900180E923
:1004E00091E068E00E94B90283E00E946D0115E38B
:1004F000812F8A95F1F783E00E9459011A95F1F74F
:1005000080E29EE40197F1F7802F8C6060E00E940A
:10051000800188E260E00E94800180E460E00E9447
:100520008001C0E0D1E0899161E00E94800181E01A
:10053000C034D807C1F780E060E00E94C501DF91B8
:10054000CF911F910F910895209A569A579A289803
:100550002E985F980895882311F05F9A01C05F98E4
:100560005E9A8AE6982F9A95F1F75E988A95F1F748
:100570000895CF92DF92EF92FF920F931F93CF9344
:10058000DF937C01062F11E0C62FD0E081E0C82E5A
:10059000D12C1BC09E01211B3109C90168E070E00C
:1005A0000E94C10DFB01EE0DFF1DC90168E070E066
:1005B0000E94C10D960102C0220F331F8A95E2F7F7
:1005C000808182230E94AB021F5F011718F7289ACF
:1005D0008AE6982F9A95F1F728988A95F1F7DF9196
:1005E000CF911F910F91FF90EF90DF90CF900895E2
:1005F00080E00E944F0281E060E00E94800180E480
:1006000091E00E94350288EE93E020E931E0F901A3
:100610003197F1F70197D9F70E9444030895877045
:10062000806480937C0085E080937A0080917A00DA
:10063000806880937A0080917A00806480937A0049
:1006400080917A0084FFFCCF80917A008061809352
:100650007A009091780080917900382F20E0290F5E
:10066000311DC90108951F920F920FB60F921124E8
:100670008F938091A0018F5F8093A0018F910F9045
:100680000FBE0F901F90189555981092800086E02D
:1006900080938100109282000895AF92BF92CF9212
:1006A000DF92EF92FF920F931F931092A00110928E
:1006B0008500109284008FEF86BB80916F0081606F
:1006C00080936F00789488EE93E020E931E0F9019F
:1006D0003197F1F70197D9F780916F008E7F809362
:1006E0006F006091A001E0908400F090850070E0C0
:1006F00080E090E0CB01772766270E94A70C5B0182
:100700006C0100E010E0C801B7010E94A50C9B013C
:10071000AC01C601B5010E94AD0B20E030E048EC11
:1007200052E40E94110C1F910F91FF90EF90DF9007
:10073000CF90BF90AF9008954198429843984098C9
:100740002C982A982D982B98299839983A983B9864
:100750003898249822982598239821980895CF9323
:10076000DF93EC010E949C038D81882309F049C02E
:100770008881813019F4259A2D9A09C0823019F4A4
:10078000239A2B9A04C0833011F4219A299A8981E3
:10079000813019F4389A409A09C0823019F4249AA9
:1007A0002C9A04C0833011F4229A2A9A9A819130AB
:1007B00019F4399A419809C0923019F43A9A42983A
:1007C00004C0933011F43B9A43980E940F039C019C
:1007D000220F331F220F331F280F391F40E050E034
:1007E000CA01B9010E94A50C20E030E040E85AEBB4
:1007F0000E94330D20E030E040EA50E40E94AD0B4F
:1008000045C0813009F052C08881813019F4259AA1
:100810002D9809C0823019F4239A2B9804C0833094
:1008200011F4219A29988981813019F4389A4098D5
:1008300009C0823019F4249A2C9804C0833011F432
:10084000229A2A989A81913019F4399A419A09C0CA
:10085000923019F43A9A429A04C0933011F43B9AB8
:10086000439A0E940F039C01220F331F220F331F54
:10087000280F391F40E050E0CA01B9010E94A50CC1
:1008800020E030E040E85AE30E94330D20E030E001
:100890004AE754E40E94330D2AE939E949E850E473
:1008A0000E94110C0E94790C7C836B830E949C0334
:1008B00081E0DF91CF9108950F931F93082F162F9A
:1008C0000E949C03013019F4389A409A07C0023004
:1008D00019F4249A2C9A02C0229A2A9A113019F4F7
:1008E000399A419809C0123019F43A9A429804C0D2
:1008F000133011F43B9A439888EE93E020E931E0FD
:10090000F9013197F1F70197D9F7802F0E940F0372
:10091000182F092F0E949C03812F902F1F910F9158
:1009200008958F929F92AF92BF92CF92DF92EF92F3
:10093000FF920F931F93DF93CF93CDB7DEB72C9722
:100940000FB6F894DEBF0FBECDBF81E062E00E941B
:100950005C044C0181E063E00E945C046C0182E075
:1009600061E00E945C045C0182E063E00E945C0440
:100970007C0183E061E00E945C048C0183E062E022
:100980000E945C0428EE821623E09206F0F4A8EEA2
:10099000CA16A3E0DA0650F48C149D0418F042E065
:1009A00033E002C043E032E020E047C0B3E0883EDD
:1009B0009B0708F056C08816990618F041E033E00E
:1009C00002C043E031E021E029C028EEC21623E056
:1009D000D20688F488EEE81683E0F80608F041C0F5
:1009E000CE14DF0418F041E032E002C042E031E012
:1009F00021E093E03AC0A8EEAA16A3E0BA06F8F404
:100A0000B8EEEB16B3E0FB0658F4AE14BF0418F0D2
:100A100041E033E002C043E031E020E092E025C055
:100A200023E0083E1207E8F4A016B10618F042E0F1
:100A300033E002C043E032E021E091E016C0A3E0E1
:100A4000083E1A0770F4B3E0883E9B0750F408177D
:100A5000190718F041E032E002C042E031E020E046
:100A6000C8CF40E030E020E090E0FE01319686E023
:100A7000DF011D928A95E9F799832E833A834B8390
:100A8000DE01179686E001900D928150E1F72F81EB
:100A9000388549855A856B857C8590E02C960FB604
:100AA000F894DEBF0FBECDBFCF91DF911F910F91A4
:100AB000FF90EF90DF90CF90BF90AF909F908F907E
:100AC0000895CF92DF92EF92FF920F931F93CF93EF
:100AD000DF93EC01C62E81E0E82EF12C012D112DC3
:100AE000DD24D3940BC0C801B7012AE030E040E018
:100AF00050E00E94960D7B018C01D394DC1498F396
:100B0000BE0180E090E020E332E040E050E00E944F
:100B1000960D20E034E02C1B3D0B40E050E00E949D
:100B2000D40DC801B7010E94960DDF91CF911F919E
:100B30000F91FF90EF90DF90CF9008953D984598EA
:100B40003E98469850985898519859983C9844988F
:100B50000895CF93DF93EC010E949E053D9A459A3C
:100B600088EE93E020E931E0F9013197F1F7019740
:100B7000D9F784E00E940F033D98459822E08D3B11
:100B8000920748F461E00E946105688379838A8353
:100B90009B8381E058C03E9A469A88EE93E020E914
:100BA00031E0F9013197F1F70197D9F784E00E941C
:100BB0000F033E98469822E08D3B920748F462E08E
:100BC0000E946105688379838A839B8382E03BC0AE
:100BD000509A589A88EE93E020E931E0F901319774
:100BE000F1F70197D9F784E00E940F0350985898C5
:100BF00022E08D3B920748F463E00E946105688320
:100C000079838A839B8383E01EC0519A599A88EE28
:100C100093E020E931E0F9013197F1F70197D9F735
:100C200084E00E940F035198599822E08C3B920770
:100C300010F08AE008C064E00E946105688379834F
:100C40008A839B8384E0DF91CF910895089508956E
:100C5000089508950895FF920F931F93DF93CF9304
:100C6000CDB7DEB760970FB6F894DEBF0FBECDBF2D
:100C7000F82E8E010F5F1F4FC80160E270E040E167
:100C800050E00E942B0FEF2DF0E0EE0FFF1FE95117
:100C9000FF4F65917491C8010E94190F80E061E0D7
:100CA0000E94C501C8010E94350260960FB6F894F3
:100CB000DEBF0FBECDBFCF91DF911F910F91FF908F
:100CC0000895FF920F931F93F82E02EA11E0C801D6
:100CD00060E270E041E150E00E942B0FEF2DF0E068
:100CE000EE0FFF1FE152FF4F65917491C8010E9402
:100CF000190F80E060E00E94C501C8010E94350222
:100D00001F910F91FF900895982F8823B9F4809137
:100D10008F01813049F4809191018F5F83708093BE
:100D200091010E9461060895809192018F5F63E0B6
:100D30000E94B50D892F909392010BC0813089F5E7
:100D400080918F01813041F482E080938F01809106
:100D500092010E942B06089580919201813069F0E2
:100D6000813018F08230E9F414C0E0919101F0E094
:100D7000EE0FFF1FE158FE4F07C0E0919101F0E038
:100D8000EE0FFF1FE957FE4F0190F081E02D09950E
:100D9000089590938F0110929201809191010E9489
:100DA000610608950F931F93DF93CF9300D000D077
:100DB000CDB7DEB7CE0101960E94A9058DB79EB7CB
:100DC00008970FB6F8949EBF0FBE8DBFEDB7FEB764
:100DD000319602EA11E0ADB7BEB712961C930E939E
:100DE00011978FE491E09383828389819A81AB810B
:100DF000BC8184839583A683B7830E94690FEDB776
:100E0000FEB738960FB6F894FEBF0FBEEDBF80E078
:100E100060E00E94C501C8010E943502D8010D9012
:100E20000020E9F78D0101501040025A114005C021
:100E300080E261E00E9480010F5F0031C8F30F90F3
:100E40000F900F900F90CF91DF911F910F91089508
:100E50000F931F93DF93CF93CDB7DEB72F970FB6C6
:100E6000F894DEBF0FBECDBF0E9491042A873B8756
:100E70004C875D876E877F87DE011496FE013A9668
:100E800086E001900D928150E1F7CE0104960E9418
:100E9000AF038C81FE01E80FF11D82E480838D8118
:100EA000FE01E80FF11D83E480838E81FE01E80FCF
:100EB000F11D85E4808382EA91E060E270E041E127
:100EC00050E00E942B0F49815A816B8189858823CC
:100ED00019F025E531E002C029E531E08DB79EB774
:100EE0000C970FB6F8949EBF0FBE8DBFEDB7FEB73F
:100EF000319602EA11E0ADB7BEB712961C930E937D
:100F000011978DE591E09383828344831582568304
:100F1000178260871186338722870E94690F8DB7F9
:100F20009EB70C960FB6F8949EBF0FBE8DBF80E0A3
:100F300060E00E94C501C8010E94350200D000D0C7
:100F400000D0EDB7FEB73196ADB7BEB712961C9381
:100F50000E9311978FE691E0938382838F8198851A
:100F6000958384830E94690F8DB79EB706960FB64E
:100F7000F8949EBF0FBE8DBF80E061E00E94C50166
:100F8000C8010E9435022F960FB6F894DEBF0FBE3F
:100F9000CDBFCF91DF911F910F910895EF92FF92F6
:100FA0000F931F9380E090E00E94EB0F7B018C0178
:100FB0000E944D039B01AC01C801B7010E94110CB6
:100FC0009B01AC010E94330D20E030E040E85FE37C
:100FD0000E94AC0B27EF34E049EA52E40E94330D43
:100FE0001F910F91FF90EF900895EF92FF920F9352
:100FF0001F9380E090E00E94EB0F7B018C010E9428
:101000004D039B01AC01C801B7010E94110C9B016B
:10101000AC010E94330D20E030E040E85FE30E9425
:10102000AC0B2FE632E143E85AE30E94330D1F91E7
:101030000F91FF90EF9008950E944D03AB01BC010A
:1010400080E090E00E94F10F0895A1E1B0E0EBE2B2
:10105000F8E00C94F60D3C017F876E876A01FC0175
:1010600017821682838181FD03C06FEF7FEF6FC30C
:101070009E012F5F3F4F398B288BF3012381EE8533
:10108000FF8523FD859123FF8191FF87EE878823CC
:1010900009F45AC3853251F4EE85FF8523FD85910D
:1010A00023FF8191FF87EE87853229F490E0B30119
:1010B0000E943D0FE2CF982F10E08824992410322F
:1010C000B0F49B3269F09C3228F4903251F09332A4
:1010D00071F40BC09D3239F0903349F4116028C08F
:1010E0001260146025C0186023C0106121C017FD74
:1010F0002AC0892F80538A3078F416FF06C0FAE0A0
:101100009F9E902C1124980E13C03AE0839E802C51
:101110001124880E10620CC09E3221F416FD14C3F7
:10112000106406C09C3611F4106802C0983659F459
:10113000EE85FF8523FD959123FF9191FF87EE8733
:10114000992309F0BCCF892F8554833020F4812F57
:101150008061905E07C0892F8556833008F09FC15B
:10116000812F8F7E86FD02C076E0972E6FE3F62EEC
:10117000F822953619F4F0E4FF2A07C0963619F4E0
:1011800020E8F22A02C091109A94F7FE0AC03BE3CD
:10119000391518F45CE3B52E02C0B92CB39427E0DE
:1011A00009C047E0491520F4BB2447E0942EF7CF4F
:1011B000292DBB24C60104969D878C87F60160818A
:1011C000718182819381AE014F5F5F4F0B2D0E9431
:1011D000410E6C010981202E332400FF04C003FD61
:1011E00002C01DE209C0F1FE02C01BE205C0F2FC14
:1011F00002C010E001C010E2C1018C709070892B18
:10120000B9F1112311F483E001C084E0881510F0D6
:1012100088240AC0881AF3FC07C080E290E0B3017A
:101220000E943D0F8A94C9F7112329F0812F90E085
:10123000B3010E943D0F23FE03C00DEE10E00EC06F
:1012400001EF10E00BC0E114F10409F0805290E0CE
:10125000B3010E943D0F0F5F1F4F05C0EF2CFF240D
:10126000F0E1EF22FF24F8018491882361F714C193
:10127000F7FE12C0BC0C24FE04C08A81813309F43D
:10128000BA941B141CF0BB24B3942DC0F8E0FB15DA
:1012900050F538E0B32E27C0F6FC25C0892D90E02C
:1012A0008C159D054CF02CEFC2162FEFD20624F0C2
:1012B00030E8F32A01C09A94992049F0E2E0F0E086
:1012C000EC0FFD1FE90DF11D80818033A1F3F7FEC6
:1012D0000AC0B92CB394892D90E0C816D90614F031
:1012E000992401C09C18F7FC03C025E030E009C038
:1012F0001C141D041CF021E030E003C096012F5F98
:101300003F4F112311F02F5F3F4F992029F0892D76
:1013100090E00196280F391F882D90E02817390793
:1013200014F0882401C0821A4F2C5524C201897000
:101330009070892B39F008C080E290E0B3010E94E0
:101340003D0F8A948820C1F7112329F0812F90E066
:10135000B3010E943D0F43FE07C008C080E390E048
:10136000B3010E943D0F8A948820C1F7F7FE46C062
:101370008601D7FE02C000E010E076010894E11C6F
:10138000F11CE01AF10A41E050E04C0F5D1FE40E41
:10139000F51E26014B185108892D90E0AA24BB2484
:1013A000A81AB90A5FEF0F3F150729F48EE290E003
:1013B000B3010E943D0FC016D10634F0401651060D
:1013C0001CF4F701808101C080E3015010400894B3
:1013D000E11CF11C0A151B052CF090E0B3010E94E2
:1013E0003D0FE0CF0C151D0539F49A81963318F4A2
:1013F000953311F424FE81E390E04BC08A81813360
:1014000009F00F7E90E0B3010E943D0F9920A1F0FA
:101410008EE290E0B3010E943D0F12E0E1E0F0E0C7
:10142000EC0FFD1FE10FF11D1F5F808190E0B30104
:101430000E943D0F9A9491F744FC03C085E690E02A
:1014400002C085E490E0B3010E943D0FD7FC05C0C7
:10145000C114D10441F404FF06C0D094C194D10852
:10146000D3948DE201C08BE290E0B3010E943D0F66
:1014700080E305C08F5F26EF3FEFC20ED31E3AE038
:10148000C316D104BCF790E0B3010E943D0FC60122
:10149000C096B3010E943D0FCC84DD8452C19336C7
:1014A00031F0933799F0933509F059C023C0F60114
:1014B000808189835E010894A11CB11C22E030E088
:1014C000C20ED31E21E0E22EF12C12C0F601A08044
:1014D000B18016FD03C06FEF7FEF02C0692D70E091
:1014E00022E030E0C20ED31EC5010E94320F7C0103
:1014F0001F7713C0F601A080B18016FD03C06FEF07
:101500007FEF02C0692D70E022E030E0C20ED31EF2
:10151000C5010E94200F7C01106813FF07C01BC08B
:1015200080E290E0B3010E943D0F8A94882D90E004
:10153000E816F906A8F30FC0F50117FD859117FF0E
:1015400081915F0190E0B3010E943D0F81108A9468
:101550000894E108F108E114F10471F7F2C094363F
:1015600011F0993689F517FF08C0F6012081318105
:101570004281538184E090E00AC0F601808191812C
:101580009C01442737FD4095542F82E090E0C80E1F
:10159000D91E9FE6F92EF12257FF09C050954095BC
:1015A000309521953F4F4F4F5F4F90E8F92ACA0180
:1015B000B901AE014F5F5F4F2AE030E00E948D0F0E
:1015C000E82EE889EE1A41C0953721F41F7E2AE003
:1015D00030E01CC0197F9F3661F0903720F49835B9
:1015E00009F0B2C00FC0903739F0983709F0ACC09D
:1015F00004C028E030E00AC0106114FD146020E14E
:1016000030E004C014FD166020E132E017FF08C08E
:10161000F601608171818281938144E050E008C0CD
:10162000F60180819181BC0180E090E042E050E0D1
:10163000C40ED51EAE014F5F5F4F0E948D0FE82E86
:101640005889E51A8FE7F82EF122F6FE0BC08EEFCF
:10165000F822E91438F4F4FE07C0F2FC05C09FEE4E
:10166000F92202C01E2D01C0192DF4FE0DC0FE018D
:10167000EE0DF11D8081803319F4E9EEFE2208C0E1
:101680001F5FF2FE05C003C08F2D867809F01F5F33
:101690000F2DF3FC14C0F0FE0FC0181510F09E2C97
:1016A0000BC09E2C980C911A182D06C080E290E079
:1016B000B3010E943D0F1F5F1815C0F304C0181539
:1016C00010F4811A01C0882404FF0FC080E390E069
:1016D000B3010E943D0F02FF1DC001FD03C088E75A
:1016E00090E00EC088E590E00BC0802F867891F0E6
:1016F00001FF02C08BE201C080E2F7FC8DE290E0C6
:10170000B3010E943D0F06C080E390E0B3010E9448
:101710003D0F9A94E914C0F3EA94E1E0F0E0EC0F95
:10172000FD1FEE0DF11D808190E0B3010E943D0F81
:10173000EE2091F706C080E290E0B3010E943D0FD9
:101740008A948820C1F799CCF30166817781CB0117
:101750006196E2E10C94120E5058BB27AA270ED0D6
:1017600048C139D130F03ED120F031F49F3F11F41F
:101770001EF42EC10EF4E095E7FB24C1E92F4AD1F7
:1017800080F3BA17620773078407950718F071F49E
:101790009EF562C10EF4E0950B2EBA2FA02D0B0121
:1017A000B90190010C01CA01A0011124FF27591BA6
:1017B00099F0593F50F4503E68F11A16F040A22FAC
:1017C000232F342F4427585FF3CF4695379527951D
:1017D000A795F0405395C9F77EF41F16BA0B620B1C
:1017E000730B840BBAF09150A1F0FF0FBB1F661F63
:1017F000771F881FC2F70EC0BA0F621F731F841FA6
:1018000048F4879577956795B795F7959E3F08F0CB
:10181000B3CF9395880F08F09927EE0F979587958A
:1018200008950CD0E6C0DED040F0D5D030F021F4E1
:101830005F3F19F0C7C0511110C1CAC0EBD098F377
:101840009923C9F35523B1F3951B550BBB27AA2741
:1018500062177307840738F09F5F5F4F220F331FB3
:10186000441FAA1FA9F333D00E2E3AF0E0E830D07F
:1018700091505040E695001CCAF729D0FE2F27D082
:10188000660F771F881FBB1F261737074807AB0750
:10189000B0E809F0BB0B802DBF01FF2793585F4FC5
:1018A0002AF09E3F510568F08DC0D7C05F3FECF332
:1018B000983EDCF3869577956795B795F7959F5F8A
:1018C000C9F7880F911D9695879597F90895E1E0DE
:1018D000660F771F881FBB1F621773078407BA073D
:1018E00020F0621B730B840BBA0BEE1F88F7E09598
:1018F000089598D088F09F5790F0B92F9927B75145
:10190000A0F0D1F0660F771F881F991F1AF0BA95C3
:10191000C9F712C0B13081F09FD0B1E008959CC0EA
:10192000672F782F8827B85F39F0B93FCCF38695B9
:1019300077956795B395D9F73EF490958095709516
:1019400061957F4F8F4F9F4F0895E89409C097FB93
:101950003EF490958095709561957F4F8F4F9F4F86
:101960009923A9F0F92F96E9BB279395F6958795CA
:1019700077956795B795F111F8CFFAF4BB0F11F48D
:1019800060FF1BC06F5F7F4F8F4F9F4F16C0882334
:1019900011F096E911C0772321F09EE8872F762F6A
:1019A00005C0662371F096E8862F70E060E02AF0AB
:1019B0009A95660F771F881FDAF7880F9695879597
:1019C00097F9089597F99F6780E870E060E00895BF
:1019D0009FEF80EC089500240A9416161706180647
:1019E0000906089500240A94121613061406050623
:1019F0000895092E0394000C11F4882352F0BB0FB4
:101A000040F4BF2B11F460FF04C06F5F7F4F8F4F16
:101A10009F4F089557FD9058440F551F59F05F3F51
:101A200071F04795880F97FB991F61F09F3F79F000
:101A300087950895121613061406551FF2CF469582
:101A4000F1DF08C0161617061806991FF1CF869504
:101A50007105610508940895E894BB2766277727E8
:101A6000CB0197F908950BD0C4CFB5DF28F0BADFCA
:101A700018F0952309F0A6CFABCF1124EECFCADF23
:101A8000A0F3959FD1F3950F50E0551F629FF00191
:101A9000729FBB27F00DB11D639FAA27F00DB11DEA
:101AA000AA1F649F6627B00DA11D661F829F222773
:101AB000B00DA11D621F739FB00DA11D621F839FFA
:101AC000A00D611D221F749F3327A00D611D231FD0
:101AD000849F600D211D822F762F6A2F11249F571E
:101AE00050408AF0E1F088234AF0EE0FFF1FBB1F41
:101AF000661F771F881F91505040A9F79E3F5105E0
:101B000070F060CFAACF5F3FECF3983EDCF3869590
:101B100077956795B795F795E7959F5FC1F7FE2B8A
:101B2000880F911D9695879597F90895629FD0012A
:101B3000739FF001829FE00DF11D649FE00DF11D88
:101B4000929FF00D839FF00D749FF00D659FF00D37
:101B50009927729FB00DE11DF91F639FB00DE11D24
:101B6000F91FBD01CF0111240895991B79E004C02C
:101B7000991F961708F0961B881F7A95C9F78095CC
:101B8000089597FB092E07260AD077FD04D065D06B
:101B900006D000201AF4709561957F4F0895F6F7EE
:101BA000909581959F4F0895A1E21A2EAA1BBB1B09
:101BB000FD010DC0AA1FBB1FEE1FFF1FA217B30719
:101BC000E407F50720F0A21BB30BE40BF50B661F2F
:101BD000771F881F991F1A9469F7609570958095F3
:101BE00090959B01AC01BD01CF0108952F923F92CA
:101BF0004F925F926F927F928F929F92AF92BF921D
:101C0000CF92DF92EF92FF920F931F93CF93DF93C8
:101C1000CDB7DEB7CA1BDB0B0FB6F894DEBF0FBE25
:101C2000CDBF09942A88398848885F846E847D8472
:101C30008C849B84AA84B984C884DF80EE80FD8074
:101C40000C811B81AA81B981CE0FD11D0FB6F894EA
:101C5000DEBF0FBECDBFED010895AA1BBB1B51E136
:101C600007C0AA1FBB1FA617B70710F0A61BB70B0C
:101C7000881F991F5A95A9F780959095BC01CD01B1
:101C80000895283008F027E03327DA01990F311D35
:101C900087FD916000966105710539F432602E5F11
:101CA0003D9330E32A95E1F708959F3F30F0803867
:101CB0007105610509F03C5F3C5F3D93913008F090
:101CC0008068911DDF93CF931F930F93FF92EF9244
:101CD000192F987F9695E92F96959695E90FFF27EE
:101CE000E15BFE4F99273327EE24FF24A701E7018C
:101CF00005900894079428F4360FE71EF81E491F34
:101D0000511D660F771F881F991F0694A1F7059034
:101D1000079428F4E70EF81E491F561FC11D770FC0
:101D2000881F991F661F0694A1F70590079428F451
:101D3000F80E491F561FC71FD11D880F991F661F18
:101D4000771F0694A1F70590079420F4490F561FBA
:101D5000C71FD81F990F661F771F881F0694A9F702
:101D600084911095177041F0D695C7955795479572
:101D7000F794E7941A95C1F7E5EFF0E068941590B1
:101D8000159135916591959105907FE27395E118D4
:101D9000F10A430B560BC90BD009C0F7E10CF11E39
:101DA000431F561FC91FD01D7EF4703311F48A954E
:101DB000E6CFE894015030F0080F0AF4002702172C
:101DC00008F4202F2395022F7A3328F079E37D93AE
:101DD0002A95E9F710C07D932A9589F60694979580
:101DE0006795379517951794E118F10A430B560B31
:101DF000C90BD00998F023957E9173957A3308F03A
:101E000070E37C932013B8F77E9170617D9330F07E
:101E1000839571E37D9370E32A95E1F71124EF90A8
:101E2000FF900F911F91CF91DF91992787FD90959A
:101E30000895FB01DC0105900D920020E1F7089563
:101E4000FC010590615070400110D8F78095909585
:101E50008E0F9F1F0895DC0101C06D9341505040CB
:101E6000E0F70895FC016150704001900110D8F72F
:101E7000809590958E0F9F1F08950F931F93CF937A
:101E8000DF938C01EB018B8181FF1BC082FF0DC0B2
:101E90002E813F818C819D812817390764F4E88168
:101EA000F9810193F983E88306C0E885F985802FDD
:101EB0000995892B31F48E819F8101969F838E83B2
:101EC00002C00FEF1FEFC801DF91CF911F910F915B
:101ED0000895AEE0B0E0EFE6FFE00C94040E0D894B
:101EE0001E8986E08C831A8309838FEF9FE79E8388
:101EF0008D839E01275E3F4FCE0101966F89788DBD
:101F0000A9010E9425082F813885020F131FF801AF
:101F100010822E96E4E00C94200EFA01AA272830B5
:101F200051F1203181F1E8946F936E7F6E5F7F4FA6
:101F30008F4F9F4FAF4FB1E03ED0B4E03CD0670F22
:101F4000781F891F9A1FA11D680F791F8A1F911D75
:101F5000A11D6A0F711D811D911DA11D20D009F4C5
:101F600068943F912AE0269F11243019305D319307
:101F7000DEF6CF010895462F4770405D4193B3E0F0
:101F80000FD0C9F7F6CF462F4F70405D4A3318F097
:101F9000495D31FD4052419302D0A9F7EACFB4E048
:101FA000A6959795879577956795BA95C9F7009700
:101FB0006105710508959B01AC010A2E06945795A1
:101FC000479537952795BA95C9F7620F731F841FF8
:101FD000951FA01D0895A6E1B0E044E050E00C94E8
:101FE000FF0F0396272F0E940E100E940D10252F21
:101FF0000E940E10242F0C940E10DC01CB01FC016A
:10200000F999FECF06C0F2BDE1BDF89A319600B451
:102010000D9241505040B8F70895262FF999FECF00
:1020200092BD81BDF89A019700B4021639F01FBA2B
:1020300020BD0FB6F894FA9AF99A0FBE0895F89455
:02204000FFCFD0
:102042000C12120C000000000C1204081E0000000A
:102052000A15110A040000000305090B0B181800E9
:102062001F0E0E04040404040101050515151500D4
:102072000E11111F1F1F1F000000000000000000B2
:102082004C4F4144494E472E2E2E0020A1070052AC
:102092003A256C7500504E50004E504E00313A2594
:1020A2006320323A256320333A25632025730042A8
:1020B2006574613A253464202020202020200026E7
:1020C200062706D206280728062906D2060000019E
:00000001FF
